:020000040800F2
:1000000008090020CD010008AB030008A303000885
:10001000A703000887020008AF08000800000000DE
:10002000000000000000000000000000290500089A
:100030008B02000800000000310400083D060008A3
:10004000E7010008E7010008E7010008E7010008F0
:10005000E7010008E7010008E7010008E7010008E0
:10006000E7010008E7010008E7010008E7010008D0
:10007000E7010008E7010008E7010008E7010008C0
:10008000E7010008E7010008E7010008E7010008B0
:10009000E7010008E7010008E7010008E7010008A0
:1000A000E7010008E7010008E7010008E701000890
:1000B000E7010008E7010008E7010008E701000880
:1000C000E7010008E7010008E7010008E701000870
:1000D000E7010008A1060008E7010008E7010008A1
:1000E000E7010008E7010008E7010008E701000850
:1000F000E7010008E7010008E7010008E701000840
:10010000E7010008E7010008E7010008E70100082F
:10011000E7010008E7010008E7010008E70100081F
:10012000E7010008E7010008E7010008E70100080F
:1001300000F002F800F03AF80AA090E8000C8244BF
:100140008344AAF10107DA4501D100F02FF8AFF29C
:10015000090EBAE80F0013F0010F18BFFB1A43F0A5
:1001600001031847A40A0000C40A0000103A24BF83
:1001700078C878C1FAD8520724BF30C830C144BF0C
:1001800004680C607047000000230024002500264E
:10019000103A28BF78C1FBD8520728BF30C148BFEA
:1001A0000B6070471FB51FBD10B510BD00F031F8D2
:1001B0001146FFF7F7FF00F09FFB00F04FF803B484
:1001C000FFF7F2FF03BC00F057F800000948804732
:1001D00009480047FEE7FEE7FEE7FEE7FEE7FEE729
:1001E000FEE7FEE7FEE7FEE704480549054A064B41
:1001F0007047000041060008310100080803002094
:1002000008090020080500200805002070477047F5
:100210007047754600F02CF8AE4605006946534617
:1002200020F00700854618B020B5FFF7DDFFBDE8D8
:1002300020404FF000064FF000074FF000084FF04D
:10024000000B21F00701AC46ACE8C009ACE8C009DE
:10025000ACE8C009ACE8C0098D46704710B504464B
:10026000AFF300802046BDE81040FFF7A8BF0000B4
:1002700000487047A802002001491820ABBEFEE7E5
:1002800026000200704700BFFEE770472DE9F041ED
:10029000024600250026002000230024002791F8B4
:1002A00003C00CF00F0591F803C00CF0100CBCF16A
:1002B000000F03D091F802C04CEA050591F800C088
:1002C000BCF1000F31D0146800202BE04FF0010C7E
:1002D0000CFA00F3B1F800C00CEA03069E4220D1EC
:1002E00083004FF00F0C0CFA03F7BC4305FA03FC34
:1002F0004CEA040491F803C0BCF1280F06D14FF07A
:10030000010C0CFA00FCC2F814C00AE091F803C01A
:10031000BCF1480F05D14FF0010C0CFA00FCC2F8FB
:1003200010C0401C0828D1D31460B1F800C0BCF143
:10033000FF0F34DD546800202EE000F1080C4FF070
:10034000010808FA0CF3B1F800C00CEA03069E425B
:1003500021D183004FF00F0C0CFA03F7BC4305FAD0
:1003600003FC4CEA040491F803C0BCF1280F05D14A
:1003700000F1080C08FA0CF8C2F8148091F803C0D8
:10038000BCF1480F07D100F1080C4FF0010808FA42
:100390000CF8C2F81080401C0828CED35460BDE889
:1003A000F08100BFFEE700BFFEE7704770B5002197
:1003B00000230F22C47804B3154C246804F4E064CD
:1003C000C4F5E064210AC1F10403CA40447804FA88
:1003D00003F184781440214309010E4C0678A1559D
:1003E000047804F01F050124AC4005786D11AD00C0
:1003F00005F1E025C5F8004109E0047804F01F0587
:100400000124AC40044D0678761145F8264070BDB5
:100410000CED00E000E400E080E100E0024901436F
:10042000024A1160704700000000FA050CED00E080
:100430007047000029B1064A92690243044B9A6151
:1004400004E0034A92698243014B9A6170470000BD
:100450000010024030B500210022002400232D4D61
:100460006D6805F00C0121B1042905D0082923D1BC
:1004700005E0294D056022E0274D05601FE0254D70
:100480006D6805F47012234D6D6805F48034022503
:1004900005EB92421CB9214D554305600BE01D4D03
:1004A0006D6805F400351DB11C4D5543056002E033
:1004B000194D5543056002E0174D056000BF00BFB0
:1004C000144D6D6805F0F0010909154D6B5C056868
:1004D000DD4045600F4D6D6805F4E061090A104D7F
:1004E0006B5C4568DD4085600A4D6D6805F46051C0
:1004F000C90A0B4D6B5C4568DD40C560054D6D68F4
:1005000005F44041890B074D6B5CC568B5FBF3F5FD
:10051000056130BD0010024000127A0000093D0064
:100520001400002024000020704710B500F002F8ED
:1005300010BD00000CB50020019000903348006809
:1005400040F480303149086000BF3048006800F452
:10055000003000900198401C0190009818B9019853
:10056000B0F5A06FF1D12948006800F4003010B157
:100570000120009001E0002000900098012843D164
:100580002348006840F010002149086008460068D0
:1005900020F0030008600846006840F00200086090
:1005A0001A4840681949486008464068486008464B
:1005B000406840F4806048600846406820F47C1041
:1005C00048600846406840F4E81048600846006803
:1005D00040F08070086000BF0C48006800F00070B8
:1005E0000028F9D00948406820F003000749486016
:1005F0000846406840F00200486000BF0348406879
:1006000000F00C000828F9D10CBD000000100240D9
:1006100000200240042808D14FF0E021096941F090
:1006200004014FF0E022116107E04FF0E021096979
:1006300021F004014FF0E022116170477047000083
:1006400010B51348006840F00100114908600846E1
:100650004068104908400E494860084600680E4945
:1006600008400B4908600846006820F480200860B4
:100670000846406820F4FE0048604FF41F00886080
:10068000FFF753FF4FF000600449086010BD000001
:10069000001002400000FFF8FFFFF6FE08ED00E04A
:1006A00010B540F22551094800F03CF860B1074808
:1006B00000F0F4F8C4B22146054800F059F940F2C0
:1006C0002551024800F006F810BD00000038014036
:1006D0006E00002010B50022002340F66A14A142EB
:1006E00000D100BF0A1201249440A3B2DC4304806D
:1006F00010BD21B1828942F40052828104E08289D6
:100700004DF6FF731A408281704702460020B1F512
:10071000007F00D100BF13880B400BB1012000E027
:100720000020704770B502460024002300250020F9
:1007300040F66A16B14200D100BFC1F3421501F084
:100740001F03012606FA03F3012D02D196893340D7
:1007500006E0022D02D1168A334001E0968A33402A
:100760000C12012606FA04F41688344013B10CB1B9
:10077000012000E0002070BDF0B5034600240026F3
:100780000025002040F66A17B94200D100BF184684
:10079000C1F3421401F01F06012707FA06F5012CE8
:1007A00001D10C3004E0022C01D1103000E01430F3
:1007B0001AB107682F43076002E00768AF4307607C
:1007C000F0BD00002DE9F04786B005460E46002436
:1007D000A24600BFA1460027B08900B100BF2F4646
:1007E0002C8A4CF6FF700440F08804432C82AC89BC
:1007F0004EF6F3100440B0883189084371890843EC
:100800000443AC81AC8A4FF6FF400440B0890443F6
:10081000AC8201A8FFF71EFE1F48874202D1DDF817
:1008200010A001E0DDF80CA0A88900F4004040B160
:100830000AEBCA0000EB0A1031684900B0FBF1F87E
:1008400007E00AEBCA0000EB0A1031688900B0FB30
:10085000F1F86420B8FBF0F004012009642101FBE9
:100860001089A88900F4004040B1322000EBC90093
:10087000B0FBF1F000F00700044308E0322000EB89
:1008800009106421B0FBF1F000F00F0004432C814B
:1008900006B0BDE8F08700000038014001468888B6
:1008A000C0F308007047C1F308028280704700BFA0
:1008B000FEE7000010B56FF00400FFF7ABFE0A483A
:1008C00000680A49B0FBF1F0094908700846007851
:1008D00000EB4001C1EBC0104FF6FF7101EAC00010
:1008E0000449088010BD00000000002000127A00BA
:1008F000280000202A0000204FF44070FFF78EFDF2
:10090000FFF7D8FF00F020F90DE00749074800F095
:100910003DF807480078012805D1034800F058F950
:10092000002003490870F0E73C0000206E00002022
:1009300034000020014648880A88904201D10120F5
:1009400070470020FCE70021018041804FF40071D6
:100950008180704710B50388821DD25C0A700288BE
:10096000521C838892FBF3F403FB1422028010BD17
:1009700010B54388821DD1544288521C838892FB53
:10098000F3F403FB1422428010BD000070B506464C
:100990000D460024304600F05DF82A4908703046C4
:1009A000FFF7C8FF01284CD0304600F053F801286B
:1009B00047D1254801193046FFF7CCFF224800787F
:1009C00002283ED1012406E01F4801193046FFF7F6
:1009D000C1FF601CC4B2042CF6DB1B48C0781A4966
:1009E000897840EA012019490880042406E0164865
:1009F00001193046FFF7AEFF601CC4B213480088EF
:100A0000801D8442F3DB002404E00F48005D28557C
:100A1000601CC4B2322CF8DB2878022808D10B48BD
:100A20000088401D285C032802D101200849087075
:100A3000002404E0002004490855601CC4B2322C94
:100A4000F8DB70BD38000020740200203600002062
:100A50003400002001460888801C8A8890FBF2F34D
:100A600002FB1302881D805C204A10700888C01C9D
:100A70008A8890FBF2F302FB1302881D805C1C4AFB
:100A8000107008888A8890FBF2F302FB1300194A61
:100A9000108017480078154A127840EA0220164A5A
:100AA000108010460088134A12881044401D8A881E
:100AB00090FBF2F302FB13000F4A1080881D0D4AD1
:100AC0001288805C0D4A1070881D0B4A1288805C69
:100AD0000B4A107009480078022805D110460078AA
:100AE000032801D1012070470020FCE72E000020E0
:100AF0002F00002030000020320000202C000020B9
:100B00002D00002008B501210420FFF793FC4FF4CD
:100B10000070ADF8000003208DF8020018208DF859
:100B2000030069460748FFF7B1FB4FF48060ADF85A
:100B3000000004208DF8030069460248FFF7A6FB79
:100B400008BD00000008014010B5FFF7DBFF00F012
:100B500009F800F02DF80248FFF7F5FE10BD00007F
:100B60006E0000201FB501218803FFF763FC4FF4DE
:100B7000E13000900020ADF80400ADF80600ADF8BB
:100B80000800ADF80C000C20ADF80A0069460748D3
:100B9000FFF718FE012240F225510448FFF7ECFD53
:100BA00001210248FFF7A5FD1FBD000000380140EC
:100BB00008B525208DF8000003208DF801008DF880
:100BC000020001208DF803006846FFF7EFFB08BD27
:100BD00070B50446E078A17840EA0120801DC6B2D5
:100BE00000250CE0615D0748FFF75DFE00BF402176
:100BF0000448FFF78AFD0028F9D0681CC5B2B54249
:100C0000F0DB70BD00380140280C00080000002017
:100C10003C0000006C010008640C00083C0000204F
:100C2000CC0800008801000800A24A04000000006F
:100C3000000000000102030406070809000000008C
:100C4000010203040102030406070809020406085E
:100C50000000000000000000000000000000000094
:040C60000000000090
:0400000508000131BD
:00000001FF
